:100000000C9476000C949E000C949E000C949E0020
:100010000C949E000C949E000C949E000C949E00E8
:100020000C949E000C949E000C949E000C949E00D8
:100030000C949E000C949E000C949E000C949E00C8
:100040000C94F30B0C949E000C946A0D0C94AD0D63
:100050000C949E000C949E000C949E000C949E00A8
:100060000C94310A0C949E00084AD73B3BCE016E9B
:1000700084BCBFFDC12F3D6C74319ABD56833DDAFF
:100080003D00C77F11BED9E4BB4C3E916BAAAABE0E
:10009000000000803F000000000700020100000394
:1000A0000406000000000000000001020408102007
:1000B00040800102040810200102040810200404FA
:1000C0000404040404040202020202020303030300
:1000D000030300000000250028002B0000000000A2
:1000E000240027002A00440850096D0E11241FBE69
:1000F000CFEFD8E0DEBFCDBF12E0A0E0B1E0E4E397
:10010000F8E202C005900D92AE31B107D9F724E0B4
:10011000AEE1B2E001C01D92AF30B207E1F710E0EE
:10012000C6E7D0E004C02197FE010E941214C33735
:10013000D107C9F70E94C30C0C9418140C9400004A
:100140008EBD0DB407FEFDCF8EB50895CF93DF931E
:10015000FC0160834183228381E083838787808BD6
:10016000818B25EF30E03583248396E096831782D8
:100170001086118612861386148615861686828B43
:10018000838B868B878B808F22E0248B958B9FEFD0
:10019000918F128E138E848F94E0958F97E0968FB7
:1001A000178E93E090A391A312A213A284A3DF0160
:1001B000CF0123E030E0D9961D921D921D921C9232
:1001C000DC97ED01CB5BDF4F188219821A821B820C
:1001D0002C96188219821A821B82EC01C35ADF4FB7
:1001E00019821882269619821882269619821882F8
:1001F000215031091496029621153105E1F6E35894
:10020000FF4F1082DF91CF9108952EE14BE661E020
:1002100070E00C94A600CF93DF93EC01CF58DF4F32
:10022000072E000C880B990B0E943B122881398104
:100230004A815B810E941F13DF91CF910895CF9374
:10024000DF93EC01CB58DF4F072E000C880B990B86
:100250000E943B12288139814A815B810E941F13D1
:10026000DF91CF910895CF93DF93EC01C758DF4F13
:10027000072E000C880B990B0E943B1228813981B4
:100280004A815B810E941F13DF91CF910895FC0189
:1002900024813581243FF1E03F0779F0203D47E09C
:1002A000340799F0253F3105D9F4FC01EF58FF4F91
:1002B00089E29CE5AFE0BCE30FC0FC01EF58FF4FC3
:1002C00089E29CE5AFE8BCE307C0FC01EF58FF4FB3
:1002D00089E29CE5AFE8BDE380839183A283B38389
:1002E0000895FC012489243089F018F4223031F07B
:1002F0000895283099F02031C9F00895FC01EB5899
:10030000FF4F80E49AEDAFE7B8E317C0FC01EB586C
:10031000FF4F80E49AEDAFEFB8E30FC0FC01EB585C
:10032000FF4F80E49AEDAFE7B9E307C0FC01EB585B
:10033000FF4F80EB93EEAFE3BAE380839183A28318
:10034000B3830895FC01258D283089F018F42430FA
:1003500031F008952C3099F02031C9F00895FC0156
:10036000E758FF4F87EF9CECA2E1B9E317C0FC010F
:10037000E758FF4F84E29BE0A8E9B9E30FC0FC0116
:10038000E758FF4F8FE991E7A1EEB9E307C0FC0101
:10039000E758FF4F84E29BE0A8E1BAE380839183B2
:1003A000A283B3830895FC0184819581853F9105E3
:1003B00059F0843F21E0920739F0803D974021F0C9
:1003C00085EF90E0958384838489823041F0843086
:1003D00031F0883021F0803111F082E0848B858DFE
:1003E000982F977F943031F0883021F0803111F0D0
:1003F00084E0858F08950F931F93CF93DF93EC01D3
:100400008C0100591F4F61E0F80180810E94870B29
:1004100061E0F80180810E94C30BC159DF4F61E0A8
:1004200088810E94870B61E088810E94C30B0E9433
:10043000480884E00E946C0881E00E945E0880E029
:10044000DF91CF911F910F910C9467081F93CF9369
:10045000DF9300D0CDB7DEB7162F60E0812F2A835F
:1004600049830E94C30B4981842F8F730E94A0008F
:100470002A81822F0E94A00061E0812F0F900F90AF
:10048000DF91CF911F910C94C30BAF92BF92CF928B
:10049000DF92EF92FF920F93CF93DF93C62F690104
:1004A0004F73D42FD068FC01E159FF4F808168134E
:1004B00004C0023010F0D42FD06C60E08C2F0E946A
:1004C000C30B8D2F0E94A0007601A02EB12CC70176
:1004D0008C199D098A159B053CF480E00E94A000C0
:1004E000F70181937F01F3CF61E08C2F0E94C30B52
:1004F000802FDF91CF910F91FF90EF90DF90CF9001
:10050000BF90AF9008950F93CF93DF931F92CDB715
:10051000DEB701E09E012F5F3F4F0E9445028981B7
:100520000F90DF91CF910F910895CF93DF9300D07B
:10053000CDB7DEB78CE992E02A8349830E94300967
:100540004981642F8CE992E00E94D7082A81622FAA
:100550008CE992E00E94D7088CE992E00F900F900E
:10056000DF91CF910C944D09242FFC013081313063
:1005700031F4E059FF4F462F60810C949502311100
:1005800007C0FC01E059FF4F462F60810C94260202
:100590000895CF93DF93EC018B81882329F08E811E
:1005A0008295880F807E01C080E02C813D81243FB0
:1005B00091E0390729F0203D374019F4886101C0E6
:1005C00088604F814370482B60E1CE010E94B402E5
:1005D00040E061E1CE010E94B4028885811102C031
:1005E00040E001C040E88985882321F08A858F702A
:1005F0008064482B62E1CE010E94B402898988237D
:1006000011F040E201C040E08889811140618F858E
:10061000811148608A89811142606EE1CE010E9499
:10062000B4028B85882311F040E201C040E08C8544
:10063000811140618D858111486063E1CE01DF91B8
:10064000CF910C94B402CF93DF93EC01888D882373
:1006500011F040E201C040E08F89811140618E8934
:10066000811148606FE1CE010E94B4028B8988231A
:1006700029F04D894295440F407E01C040E08C89AD
:10068000883031F0803131F0843029F4406103C08A
:10069000486101C04860898D87FD03C04460837054
:1006A000482B60E2CE010E94B4028A8D882341F07B
:1006B0004B8D437080E2489FA0011124406801C027
:1006C00040E061E2CE01DF91CF910C94B402242F7F
:1006D000FC013081313031F4E159FF4F462F608108
:1006E0000C949502311107C0FC01E159FF4F462FD0
:1006F00060810C9426020895CF93DF93EC018F8DD7
:10070000882311F040E801C040E02E8D277054E0AE
:10071000259F9001112498A1937050E2959FC001EC
:100720001124822B482B60E2CE010E946703ED8DDD
:10073000E850E93028F4F0E0E050FF4F408101C07C
:1007400040E061E2CE010E9467038AA1882311F094
:1007500080E201C080E04BA14370482B62E2CE01F1
:100760000E94670349A14370440F440F63E2CE0126
:100770000E94670340E064E2CE01DF91CF910C94C8
:1007800067031F93CF93DF931F92CDB7DEB7162F6A
:100790008CE992E049830E9430094981642F8CE9F9
:1007A00092E00E94D70860E08CE992E00E943A094A
:1007B00041E0612F8CE992E00E942D098CE992E0E2
:1007C0000E9483080F90DF91CF911F910895462FCB
:1007D000FC012081213029F4E059FF4F60810C9405
:1007E000C103211106C0FC01E059FF4F60810C9448
:1007F00083020895462FFC012081213029F4E1591C
:10080000FF4F60810C94C103211106C0FC01E15926
:10081000FF4F60810C94830208951F93CF93DF9361
:10082000EC01FC01E059FF4F8981808331978A8177
:100830008083CE010E94D301CE010E944701CE01E8
:100840000E94A201CE010E9471018881813029F4A9
:100850008CE992E00E94160905C0811103C0CE0107
:100860000E94FB016FE0CE010E94FA03182F6FE097
:10087000CE010E94E703212F30E0382B2D3338467C
:1008800061F4CE010E94C902CE010E942303CE0171
:100890000E947C038DE398E602C080E090E0DF9147
:1008A000CF911F910895CF92DF92EF92FF920F9315
:1008B0001F93CF93162FC42F79018CE992E00E94E9
:1008C00030096C2F60688CE992E00E94D70860E0E4
:1008D0008CE992E00E943A09882311F080E01BC065
:1008E000402F612F8CE992E00E942D09C82F8013C0
:1008F000F5CF8701C82ED12CC8018E199F098C1500
:100900009D0544F48CE992E00E948308F8018193EC
:100910008F01F2CF8C2FCF911F910F91FF90EF900D
:10092000DF90CF9008950F93022FFC01208121309A
:1009300041F4E059FF4F9A01462F60810E94530411
:100940000BC0211109C0FC01E059FF4F9A01462F4D
:1009500060810E94450200C00F9108950F931F937C
:10096000CF93DF9300D000D000D0CDB7DEB78C019D
:1009700026E0AE014F5F5F4F68E20E94930486302D
:10098000C1F54A8150E0542F44278981482BF80152
:1009900054A743A72C8130E0322F22278B81282BAC
:1009A00036A725A78E8190E0982F88276D81862B0A
:1009B00090AB87A7E358FF4F60816623D1F07A9709
:1009C00060817181461B570BF80154A743A7EB596F
:1009D000FF4F40815181241B350BF80136A725A715
:1009E000E959FF4F20813181821B930BF80190ABB5
:1009F00087A726960FB6F894DEBF0FBECDBFDF9156
:100A0000CF911F910F9108950F931F93CF93DF9371
:100A100000D000D000D0CDB7DEB78C0126E0AE010B
:100A20004F5F5F4F68E10E9493048630C1F54A81B1
:100A300050E0542F44278981482BF80156A345A341
:100A40002C8130E0322F22278B81282B30A727A33F
:100A50008E8190E0982F88276D81862B92A781A7A1
:100A6000E358FF4F60816623D1F0B09760817181B8
:100A7000461B570BF80156A345A3E15AFF4F40818F
:100A80005181241B350BF80130A727A3EF59FF4FE5
:100A900020813181821B930BF80192A781A72696B2
:100AA0000FB6F894DEBF0FBECDBFDF91CF911F917F
:100AB0000F9108950F93022FFC012081213041F402
:100AC000E159FF4F9A01462F60810E9453040BC0E9
:100AD000211109C0FC01E159FF4F9A01462F6081A5
:100AE0000E94450200C00F9108950F931F93CF936A
:100AF000DF9300D000D000D0CDB7DEB78C0126E068
:100B0000AE014F5F5F4F68E20E945A058630C9F41C
:100B10008A8190E0982F88272981822BF80192AB57
:100B200081AB2C8130E0322F22278B81282B34ABF4
:100B300023AB2E8130E0322F22278D81282B36AB3C
:100B400025AB26960FB6F894DEBF0FBECDBFDF9162
:100B5000CF911F910F91089540E855E260E070E059
:100B600085E693E00E94E80D10921E028AE08093D1
:100B7000200289E080931F028EE192E00E940D0422
:100B8000892B99F469E071E085E693E00E94020FF9
:100B90006DE271E085E693E00E94020F62E471E08D
:100BA00085E693E00E94020FFFCF0895CF93DF9375
:100BB0008EE192E00E9404056AEC71E085E693E024
:100BC0000E94E50ECEE1D2E06DA17EA1CE010E9491
:100BD0000B01AB01BC0122E030E085E693E00E940E
:100BE00099106EEC71E085E693E00E94E50E6FA12E
:100BF00078A5CE010E940B01AB01BC0122E030E0E0
:100C000085E693E00E9499106EEC71E085E693E032
:100C10000E94E50E69A57AA5CE010E940B01AB01E9
:100C2000BC0122E030E085E693E0DF91CF910C94A7
:100C30009B10CF93DF938EE192E00E94AE0461EDB2
:100C400071E085E693E00E94E50ECEE1D2E06BA56F
:100C50007CA5CE010E941F01AB01BC0122E030E067
:100C600085E693E00E9499106EEC71E085E693E0D2
:100C70000E94E50E6DA57EA5CE010E941F01AB016D
:100C8000BC0122E030E085E693E00E9499106EEC12
:100C900071E085E693E00E94E50E6FA578A9CE018C
:100CA0000E941F01AB01BC0122E030E085E693E029
:100CB000DF91CF910C949B10CF93DF938EE192E064
:100CC0000E94750565ED71E085E693E00E94E50EF2
:100CD000CEE1D2E069A97AA9CE010E943301AB012D
:100CE000BC0122E030E085E693E00E9499106EECB2
:100CF00071E085E693E00E94E50E6BA97CA9CE0128
:100D00000E943301AB01BC0122E030E085E693E0B4
:100D10000E9499106EEC71E085E693E00E94E50E6A
:100D20006DA97EA9CE010E943301AB01BC0122E076
:100D300030E085E693E0DF91CF910C949B104F92C9
:100D40005F926F927F92AF92BF92CF92DF92EF92BB
:100D5000FF920F931F93CF93DF93CDB7DEB76097CA
:100D60000FB6F894DEBF0FBECDBF6D877E878F872D
:100D7000988B29013A01E982FA820B831C8389A1AD
:100D80009AA1ABA1BCA18D839E83AF83B887A80134
:100D90009701C301B2010E942D1169877A878B8761
:100DA0009C87A3019201C301B2010E941F132B0172
:100DB0003C01A8019701C801B7010E941F139B01C4
:100DC000AC01C301B2010E94AE100E9492139B01BC
:100DD000AC016D857E858F85988990580E942D1174
:100DE0002B013C0120E030E0A9016D817E818F81E3
:100DF00098850E948C1181110DC020E030E0A9017E
:100E0000C601B5010E948C1187FD0DC060E070E045
:100E1000CB010DC02D813E814F815885C601B501A2
:100E20000E942D1104C06BED7FE089E490E42FED6A
:100E300037E549E15EE30E94AE106B017C012BEDCA
:100E40003FE049E450E40E94121318164CF42BEDD5
:100E50003FE049EC50E4C701B6010E94AD101BC051
:100E60002BED3FE049E450ECC701B6010E948C1124
:100E700087FD09C020E030E0A901C701B6010E944A
:100E80008C1187FF0AC02BED3FE049EC50E4C7010D
:100E9000B6010E94AE106B017C0169ED71E085E640
:100EA00093E00E94E50E20EE3EE245E652E4C301E7
:100EB000B2010E941F13AB01BC0122E030E085E6C5
:100EC00093E00E9499106EEC71E085E693E00E9439
:100ED000E50E20EE3EE245E652E469857A858B8593
:100EE0009C850E941F13AB01BC0122E030E085E627
:100EF00093E00E949B1067EE71E085E693E00E940C
:100F0000E50E20EE3EE245E652E4C701B6010E943E
:100F10001F13AB01BC0122E030E085E693E0609650
:100F20000FB6F894DEBF0FBECDBFDF91CF911F91FA
:100F30000F91FF90EF90DF90CF90BF90AF907F9098
:100F40006F905F904F900C949B104F925F926F92B6
:100F50007F92AF92BF92CF92DF92EF92FF920F9368
:100F60001F93CF93DF93CDB7DEB728970FB6F894D2
:100F7000DEBF0FBECDBF0E94D6050E9419060E949B
:100F80005C060EE112E0F80163A974A97195619500
:100F90007109072E000C880B990B0E943B125B0114
:100FA0006C01F80167A570A9072E000C880B990B3E
:100FB0000E943B1269837A838B839C83F80165A529
:100FC00076A5072E000C880B990B0E943B129B0103
:100FD000AC01F80163A574A5072E000C880B990BD2
:100FE0002D833E834F8358870E943B122B013C0187
:100FF000F80165A976A9072E000C880B990B0E94B1
:101000003B129F938F937F936F93F80161A972A90D
:10101000719561957109072E000C880B990B0E9440
:101020003B129F938F937F936F93E980FA800B819C
:101030001C812D813E814F815885C301B2010E94E0
:101040009F0685E693E00E94EE0E0FB6F894DEBF91
:101050000FBECDBF6AEF70E080E090E028960FB63B
:10106000F894DEBF0FBECDBFDF91CF911F910F91DE
:10107000FF90EF90DF90CF90BF90AF907F906F90F8
:101080005F904F900C94620C8EE192E00C940501FD
:1010900061E08AE00E94C30B61E08AE00E94870B56
:1010A0008CB580618CBD8CB580648CBD61E08DE0B9
:1010B0000E94870B61E08BE00C94870B811103C0C9
:1010C0008CB5806202C08CB58F7D8CBD08959CB5B7
:1010D000937F892B8CBD08959CB5282F23709C7F0E
:1010E000922B9CBD2DB582FB992790F9822F8E7F84
:1010F000892B8DBD08958091CC0290E02091CD0286
:10110000821B910908959091CD028091CC0298178D
:1011100050F4E92FF0E0E253FD4F208130E09F5F73
:101120009093CD0202C02FEF3FEFC9010895E091E7
:10113000CD028091CC02E81730F4F0E0E253FD4F8D
:10114000808190E008958FEF9FEF08950895CF92EA
:10115000DF92EF92FF920F931F93CF93DF937C0167
:10116000262F972F8A018091A802882391F0C62FFD
:10117000D72F6E01C40ED51ECC15DD0571F0699117
:10118000D701ED91FC910190F081E02DC701099507
:10119000F3CF642F822F0E94080AC801DF91CF91FC
:1011A0001F910F91FF90EF90DF90CF900895CF9314
:1011B000DF931F92CDB7DEB769832091A802222367
:1011C000D1F02091A902203240F021E030E0FC0172
:1011D0003383228380E090E015C08091AA02E82F3B
:1011E000F0E0E555FD4F998190838F5F8093AA02CF
:1011F0008093A90205C061E0CE0101960E94080A11
:1012000081E090E00F90DF91CF910895FC0113826F
:10121000128288EE93E0A0E0B0E084839583A683F9
:10122000B78385EF91E09183808308951092CD027A
:101230001092CC021092AA021092A9020C945409A6
:10124000862F413208F040E26EEC72E00E94720993
:101250001092CD028093CC02089521E00C942009D5
:1012600081E08093A8026093CB021092AA021092B0
:10127000A90208950F93062F21E04091A9026BEA7D
:1012800072E08091CB020E94B6091092AA021092DD
:10129000A9021092A8020F91089561E00C943A09F6
:1012A0008CE992E00C94060910925B0381E0809334
:1012B00059031092580361E082E10E94C30B61E080
:1012C00083E10E94C30BE9EBF0E080818E7F808395
:1012D00080818D7F808380E28093B80085E4809355
:1012E000BC000895413208F03FC090915B0391111A
:1012F000FCCF91E090935B03209359032FEF209351
:10130000EE0210923303240F2093320390935A037A
:1013100090915A03880F892B80935A038091580328
:10132000813041F41092580380915A038093BB009E
:1013300085EC01C085EE8093BC0080915B03813019
:10134000E1F380913303841710F44091330324E3D5
:1013500033E0FB01D9018A2F821B841718F48D9189
:101360008193F9CF842F089580E008950F9341323F
:1013700008F046C090915B039111FCCF32E03093AE
:101380005B03009359033FEF3093EE021092330357
:1013900040933203FB0164E373E0DB013A2F361B19
:1013A000341718F431913D93F9CF10925A033091CC
:1013B0005A03880F832B80935A03809158038130FE
:1013C00041F41092580380915A038093BB0085EC3E
:1013D00001C085EE8093BC00222321F080915B0345
:1013E0008230D1F38091EE028F3F79F08091EE024E
:1013F000803241F08091EE02803331F094E005C0FC
:1014000091E003C092E001C093E0892F0F9108950D
:10141000613298F420915B03243089F460931003C7
:10142000FC0122E133E0D9018A2F821B861718F4D0
:1014300081918D93F9CF80E0089581E0089582E055
:10144000089585ED8093BC008091BC0084FDFCCFA5
:1014500010925B03089585EC8093BC0010925B03AF
:1014600008951F920F920FB60F9211242F933F935E
:101470004F935F936F937F938F939F93AF93BF939C
:10148000EF93FF938091B900887F803609F49CC068
:1014900068F5883209F45BC090F4803109F454C0D7
:1014A00038F4882309F4F5C0883009F44DC0F5C03C
:1014B000883109F44CC0803209F45DC0EEC080343C
:1014C00009F468C048F4803309F455C0883309F042
:1014D000E4C08093EE02A8C0803509F44FC088357F
:1014E00009F45DC0883409F0D8C0D5C0883909F442
:1014F000C6C0A8F4883709F467C038F4883609F400
:1015000063C0803709F460C0C8C0883809F4B7C028
:10151000803909F45FC0803809F0BFC05BC0803BF0
:1015200009F485C038F4803A09F466C0883A09F4B1
:101530007EC0B3C0803C09F4A6C0883C09F4A3C0B7
:10154000883B09F489C0A9C080915A0310C09091CA
:10155000330380913203981770F5E091330381E0F3
:101560008E0F80933303F0E0EC5CFC4F808180931E
:10157000BB0085EC85C08093EE028DC0E091330303
:1015800081E08E0F809333038091BB00F0E0EC5C30
:10159000FC4F808390913303809132036DC0E091C2
:1015A000330381E08E0F809333038091BB00F0E022
:1015B000EC5CFC4F80838091590381116CC081E009
:1015C0008093580384EA60C083E080935B031092A9
:1015D000EF02CFCF8091EF02803208F050C0E0914F
:1015E000EF0281E08E0F8093EF028091BB00F0E06C
:1015F000E051FD4F8083BDCF8091EF02803230F407
:10160000E091EF02F0E0E051FD4F10820E94210ACC
:101610006091EF0270E0E0915403F091550380EF88
:1016200092E009951092EF020E942B0A36C084E0E6
:1016300080935B031092110310921003E091560304
:10164000F0915703099580911003811105C081E045
:101650008093100310921203E091110381E08E0F2A
:1016600080931103F0E0EE5EFC4F80818093BB001D
:101670009091110380911003981708F47ACF85E8B0
:101680008093BC000AC085EC8093BC0010925B0381
:1016900004C01092EE020E94210AFF91EF91BF91C7
:1016A000AF919F918F917F916F915F914F913F91FA
:1016B0002F910F900FBE0F901F901895833081F0DF
:1016C00028F4813099F08230A1F008958630A9F095
:1016D0008730B9F08430D1F4809180008F7D03C0D1
:1016E000809180008F7780938000089584B58F77F4
:1016F00002C084B58F7D84BD08958091B0008F773E
:1017000003C08091B0008F7D8093B0000895CF9387
:10171000DF9390E0FC01E655FF4F2491FC01E25479
:10172000FF4F8491882361F190E0880F991FFC019D
:10173000E452FF4FC591D491FC01EE52FF4FA591A9
:10174000B491611109C09FB7F894888120958223D4
:101750008883EC912E230BC0623061F49FB7F8941C
:101760003881822F809583238883EC912E2B2C93B4
:101770009FBF06C08FB7F894E8812E2B28838FBFB8
:10178000DF91CF9108951F93CF93DF93282F30E0FF
:10179000F901EA56FF4F8491F901E655FF4FD491C4
:1017A000F901E254FF4FC491CC23C9F0162F8111E7
:1017B0000E945E0BEC2FF0E0EE0FFF1FEE52FF4F8A
:1017C000A591B4918FB7F894111105C09C91ED2F9C
:1017D000E095E92302C0EC91ED2BEC938FBFDF91F4
:1017E000CF911F9108951F920F920FB60F9211245F
:1017F0002F933F938F939F93AF93BF9380915D03FC
:1018000090915E03A0915F03B091600330915C03FF
:1018100026E0230F2D3720F40296A11DB11D05C02F
:1018200029E8230F0396A11DB11D20935C0380932B
:101830005D0390935E03A0935F03B0936003809178
:10184000610390916203A0916303B09164030196D8
:10185000A11DB11D8093610390936203A093630364
:10186000B0936403BF91AF919F918F913F912F915E
:101870000F900FBE0F901F9018953FB7F89480916E
:10188000610390916203A0916303B091640326B554
:10189000A89B05C02F3F19F00196A11DB11D3FBFA8
:1018A000BA2FA92F982F8827820F911DA11DB11D36
:1018B000BC01CD0143E0660F771F881F991F4A9531
:1018C000D1F70895CF92DF92EF92FF92CF93DF93FB
:1018D0006B017C010E943D0CEB01C114D104E104B9
:1018E000F10479F00E943D0C6C1B7D0B683E734047
:1018F000A0F381E0C81AD108E108F108C851DC4F13
:10190000ECCFDF91CF91FF90EF90DF90CF900895D3
:10191000789484B5826084BD84B5816084BD85B5CA
:10192000826085BD85B5816085BDEEE6F0E0808191
:1019300081608083E1E8F0E01082808182608083B2
:10194000808181608083E0E8F0E080818160808335
:10195000E1EBF0E0808184608083E0EBF0E0808167
:1019600081608083EAE7F0E0808184608083808109
:1019700082608083808181608083808180688083B1
:101980001092C10008950E94880C0E94AC05C4EA20
:10199000DDE00E94A5072097E1F30E94A40DF9CF96
:1019A000FC0124853585F901E05CFF4F8081918140
:1019B000329620813181821B930B8F739927089572
:1019C000DC011C96ED91FC911D97DF01A05CBF4FDF
:1019D0002D913C91119712968D919C9111972817FA
:1019E000390739F08D919C91E80FF91F808190E0C3
:1019F00008958FEF9FEF0895FC01A485B585FD0143
:101A0000E05CFF4F208131813296808191812817DF
:101A1000390779F080819181A80FB91F8C912081BD
:101A200031812F5F3F4F2F7333273183208390E025
:101A300008958FEF9FEF0895FC0181A1882329F07D
:101A4000A489B5898C9186FFFBCF11A208950F93CD
:101A50001F93CF93DF93FC01A685B7858D01005CB2
:101A60001F4FE8018881998101968F739927AD01F5
:101A70004E5B5F4FEA012881398182179307D1F3CA
:101A8000E80128813981A20FB31F6C93A685B78521
:101A9000A05CBF4F11969C938E93A689B7892C9119
:101AA00081E090E0078C02C0880F991F0A94E2F74A
:101AB000822B8C9381E081A30488F589E02D8081BD
:101AC0008064808381E090E0DF91CF911F910F913E
:101AD000089508951F920F920FB60F9211242F931D
:101AE0004F935F938F939F93EF93FF938091C000E9
:101AF00082FD1CC02091C60080910B0490910C04C3
:101B000001968F73992740910D0450910E0484170C
:101B1000950771F0E0910B04F0910C04E553FC4F34
:101B2000208390930C0480930B0402C08091C60024
:101B3000FF91EF919F918F915F914F912F910F9016
:101B40000FBE0F901F90189585E693E00E94D00C71
:101B5000892B11F00C94690D08951F920F920FB606
:101B60000F9211242F933F938F939F93EF93FF93A3
:101B70002091C7033091C8038091C9039091CA0393
:101B80002817390731F48091C1008F7D8093C100FF
:101B900014C0E091C903F091CA03E957FC4F2081BA
:101BA0008091C9039091CA0301968F7399279093EE
:101BB000CA038093C9032093C600FF91EF919F91C0
:101BC0008F913F912F910F900FBE0F901F901895FE
:101BD000CF92DF92EF92FF920F931F93CF93DF93F9
:101BE000EC016A017B01EC89FD8981E090E008A0AD
:101BF00002C0880F991F0A94E2F7808360E874E8B6
:101C00008EE190E0A70196010E94F01389019A01EC
:101C10000150110921093109369527951795079526
:101C200098010115104108F042C0E889F989308314
:101C3000EA89FB89208319A2EE89FF89408181E02E
:101C400090E09C010C8C02C0220F331F0A94E2F733
:101C5000242B2083EE89FF8940819C010D8C02C0DA
:101C6000220F331F0A94E2F7242B2083EE89FF8989
:101C700040819C010E8C02C0220F331F0A94E2F7B0
:101C8000242B2083EE89FF8920810F8C02C0880FCE
:101C9000991F0A94E2F7809582238083DF91CF9188
:101CA0001F910F91FF90EF90DF90CF900895EC89F6
:101CB000FD89108260E472E48FE090E0A701960154
:101CC0000E94F013DA01C9010197A109B109B69583
:101CD000A795979587959C01A8CFE5E6F3E0138239
:101CE000128288EE93E0A0E0B0E084839583A6831F
:101CF000B78385E092E0918380838BEC93E09587B6
:101D0000848787E893E09787868785EC90E0918BBE
:101D1000808B84EC90E0938B828B80EC90E0958BB1
:101D2000848B81EC90E0978B868B82EC90E0918F96
:101D3000808F86EC90E0938F828F84E0848F83E0A5
:101D4000858F87E0868F85E0878F81E080A3089567
:101D5000CF92DF92EF92FF920F931F93CF93DF9377
:101D60006C01EB017B01E40EF51E00E010E0CE15E6
:101D7000DF0561F06991D601ED91FC910190F08150
:101D8000E02DC6010995080F191FF1CFC801DF9199
:101D9000CF911F910F91FF90EF90DF90CF9008951A
:101DA0006115710579F0FB0101900020E9F7319789
:101DB000AF01461B570BDC01ED91FC910280F381D2
:101DC000E02D099480E090E008950C94D00EDC01A1
:101DD000ED91FC910190F081E02D09940F931F93F8
:101DE000CF93DF93EC016DE00E94E70E8C016AE077
:101DF000CE010E94E70E800F911FDF91CF911F91BE
:101E00000F9108950F931F93CF93DF93EC010E94DE
:101E1000D00E8C01CE010E94EE0E800F911FDF913B
:101E2000CF911F910F9108958F929F92AF92BF9281
:101E3000CF92DF92EF92FF920F931F93CF93DF9396
:101E4000CDB7DEB7A1970FB6F894DEBF0FBECDBFFA
:101E50006C01142FE52FCB01022F19A2223008F4B8
:101E60000AE07E0121E2E20EF11C802E912CA12CD1
:101E7000B12C612F7E2FA50194010E94F013029FC7
:101E80001019112481E0E81AF1081A3014F4105DD9
:101E900001C0195CF7011083122FE32FCA01232B15
:101EA000242B252B31F7B701C6010E94D00EA19635
:101EB0000FB6F894DEBF0FBECDBFDF91CF911F915B
:101EC0000F91FF90EF90DF90CF90BF90AF909F90D9
:101ED0008F900895CF92DF92EF92FF920F931F930E
:101EE000CF93DF93EC016A017B012115310579F471
:101EF000E881F9810190F081E02D642FDF91CF918D
:101F00001F910F91FF90EF90DF90CF9009942A30AE
:101F10003105E9F477FF1AC06DE20E94E70E8C01EB
:101F200044275527BA014C195D096E097F092AE03B
:101F3000CE010E94140F800F911FDF91CF911F914E
:101F40000F91FF90EF90DF90CF9008952AE0B701B6
:101F5000A601CE01DF91CF911F910F91FF90EF90DD
:101F6000DF90CF900C94140F4F925F926F927F92FC
:101F70008F929F92AF92BF92CF92DF92EF92FF9299
:101F8000CF93DF93EC016A017B01B22E9A01AB0182
:101F9000C701B6010E94D613882319F061E172E0EF
:101FA00027C026013701E89477F82FEF3FEF4FE77E
:101FB0005FE7C301B2010E94D61381110DC02FEF5C
:101FC0003FEF4FE75FE7C301B2010E948C11181683
:101FD0001CF465E172E00CC02FEF3FEF4FE75FE4C8
:101FE000C701B6010E94121318169CF469E172E051
:101FF000CE01DF91CF91FF90EF90DF90CF90BF9017
:10200000AF909F908F907F906F905F904F900C94C7
:10201000D00E2FEF3FEF4FE75FECC701B6010E94F4
:102020008C1187FDE3CF20E030E0A901C701B601A4
:102030000E948C1187FF0AC06DE2CE010E94E70E5C
:102040004C01F7FAF094F7F8F09402C0812C912C2F
:10205000A12C60E070E080E09FE3AB1441F020E051
:1020600030E040E251E40E949111A394F6CF9B012D
:10207000AC01C701B6010E94AE102B013C010E94C9
:102080000A126B017C010E9439129B01AC01C30151
:10209000B2010E94AD102B013C012AE0B701A6015C
:1020A000CE010E94140F7C01E80CF91CBB2039F012
:1020B0006BE271E0CE010E94D00EE80EF91EDB2C1F
:1020C000DD2039F120E030E040E251E4C301B2010B
:1020D0000E941F132B013C010E9403124B01770F3A
:1020E000AA08BB082AE030E0B501A401CE010E9495
:1020F0006A0FE80EF91EC501B4010E943B129B0154
:10210000AC01C301B2010E94AD102B013C01DA9475
:10211000D7CFC701DF91CF91FF90EF90DF90CF90A5
:10212000BF90AF909F908F907F906F905F904F90F7
:1021300008950C94B40F0F931F93CF93DF93EC018A
:102140000E94B40F8C01CE010E94EE0E800F911FF1
:10215000DF91CF911F910F9108955058BB27AA2767
:102160000E94C5100C94D8120E94CA1238F00E9426
:10217000D11220F039F49F3F19F426F40C94A012E8
:102180000EF4E095E7FB0C949A12E92F0E94E912F5
:1021900058F3BA17620773078407950720F079F49C
:1021A000A6F50C940B130EF4E0950B2EBA2FA02D70
:1021B0000B01B90190010C01CA01A0011124FF27F4
:1021C000591B99F0593F50F4503E68F11A16F040EF
:1021D000A22F232F342F4427585FF3CF46953795EE
:1021E0002795A795F0405395C9F77EF41F16BA0BB3
:1021F000620B730B840BBAF09150A1F0FF0FBB1F61
:10220000661F771F881FC2F70EC0BA0F621F731FA9
:10221000841F48F4879577956795B795F7959E3F06
:1022200008F0B0CF9395880F08F09927EE0F979597
:10223000879508950E94CA1260F080E891E009F441
:102240009EEF0E94D11228F040E851E071F45EEF59
:102250000CC00C94A0120C940B13E92FE0780E9490
:10226000E91240F3092E052AB1F32617370748076C
:10227000590738F00E2E07F8E02569F0E025E064F4
:102280000AC0EF6307F8009407FADB01B9019D016A
:10229000DC01CA01AD01EF930E94A8110E94D8127F
:1022A0000E945D115F91552339F02BED3FE049E429
:1022B00050FD49EC0C94AE100895DF93DD27B92F43
:1022C000BF7740E85FE31616170648075B0718F468
:1022D000D92F0E9417139F938F937F936F930E9420
:1022E000D213E8E6F0E00E94A3120E94D8122F91C8
:1022F0003F914F915F910E943213DD2351F090582E
:10230000A2EA2AED3FE049EC5FE3D0785D270E9426
:10231000C510DF910C94D8120E94761208F481E067
:1023200008950E94A5110C94D8120E94D11258F061
:102330000E94CA1240F029F45F3F29F00C949A12CF
:1023400051110C940C130C94A0120E94E91268F322
:102350009923B1F3552391F3951B550BBB27AA275E
:1023600062177307840738F09F5F5F4F220F331F98
:10237000441FAA1FA9F335D00E2E3AF0E0E832D060
:1023800091505040E695001CCAF72BD0FE2F29D063
:10239000660F771F881FBB1F261737074807AB0735
:1023A000B0E809F0BB0B802DBF01FF2793585F4FAA
:1023B0003AF09E3F510578F00C949A120C940C134D
:1023C0005F3FE4F3983ED4F3869577956795B7958C
:1023D000F7959F5FC9F7880F911D9695879597F997
:1023E0000895E1E0660F771F881FBB1F6217730710
:1023F0008407BA0720F0621B730B840BBA0BEE1F25
:1024000088F7E09508950E940A126894B1110C941F
:102410000C1308950E94F11288F09F5798F0B92F7D
:102420009927B751B0F0E1F0660F771F881F991F09
:102430001AF0BA95C9F714C0B13091F00E940B138D
:10244000B1E008950C940B13672F782F8827B85F9D
:1024500039F0B93FCCF3869577956795B395D9F761
:102460003EF490958095709561957F4F8F4F9F4F6B
:102470000895E89409C097FB3EF490958095709577
:1024800061957F4F8F4F9F4F9923A9F0F92F96E9C0
:10249000BB279395F695879577956795B795F11135
:1024A000F8CFFAF4BB0F11F460FF1BC06F5F7F4FD2
:1024B0008F4F9F4F16C0882311F096E911C07723E4
:1024C00021F09EE8872F762F05C0662371F096E8ED
:1024D000862F70E060E02AF09A95660F771F881FBC
:1024E000DAF7880F9695879597F90895990F000860
:1024F000550FAA0BE0E8FEEF16161706E807F907D6
:10250000C0F012161306E407F50798F0621B730B70
:10251000840B950B39F40A2661F0232B242B252BF1
:1025200021F408950A2609F4A140A6958FEF811D94
:10253000811D089597F99F6780E870E060E0089535
:102540009FEF80EC0895DF93CF931F930F93FF923B
:10255000EF92DF927B018C01689406C0DA2EEF01C6
:102560000E943213FE01E894A59125913591459181
:102570005591A6F3EF010E94C510FE019701A80135
:10258000DA9469F7DF90EF90FF900F911F91CF9150
:10259000DF91089500240A941616170618060906F6
:1025A000089500240A9412161306140605060895C9
:1025B000092E0394000C11F4882352F0BB0F40F451
:1025C000BF2B11F460FF04C06F5F7F4F8F4F9F4F91
:1025D000089557FD9058440F551F59F05F3F71F013
:1025E0004795880F97FB991F61F09F3F79F087957A
:1025F0000895121613061406551FF2CF4695F1DF03
:1026000008C0161617061806991FF1CF8695710592
:10261000610508940895E894BB2766277727CB01C6
:1026200097F908950E94761208F48FEF08959B01A0
:10263000AC0160E070E080E89FE30C9491110E948F
:1026400032130C94D8120E94CA1238F00E94D11290
:1026500020F0952311F00C949A120C94A0121124DE
:102660000C940C130E94E91270F3959FC1F3950F1F
:1026700050E0551F629FF001729FBB27F00DB11D06
:10268000639FAA27F00DB11DAA1F649F6627B00D96
:10269000A11D661F829F2227B00DA11D621F739F7F
:1026A000B00DA11D621F839FA00D611D221F749F8D
:1026B0003327A00D611D231F849F600D211D822FD4
:1026C000762F6A2F11249F5750409AF0F1F08823FB
:1026D0004AF0EE0FFF1FBB1F661F771F881F915028
:1026E0005040A9F79E3F510580F00C949A120C942B
:1026F0000C135F3FE4F3983ED4F386957795679586
:10270000B795F795E7959F5FC1F7FE2B880F911D51
:102710009695879597F9089519F416F40C94A012DC
:102720000C94DB130E94F112B8F39923C9F3B6F3AA
:102730009F57550B87FF0E94E9130024A0E640EA4B
:10274000900180585695979528F4805C660F771F06
:10275000881F20F026173707480730F4621B730BD9
:10276000840B202931294A2BA695179407942025FC
:1027700031254A2758F7660F771F881F20F0261744
:102780003707480730F4620B730B840B200D311DA3
:10279000411DA09581F7B901842F9158880F969516
:1027A000879508959B01AC010C941F130E9476122B
:1027B000880B990B08959F3F31F0915020F4879535
:1027C00077956795B795880F911D9695879597F999
:1027D000089591505040660F771F881FD2F70895D3
:1027E000A1E21A2EAA1BBB1BFD010DC0AA1FBB1F15
:1027F000EE1FFF1FA217B307E407F50720F0A21B87
:10280000B30BE40BF50B661F771F881F991F1A94F3
:1028100069F760957095809590959B01AC01BD011D
:10282000CF010895EE0FFF1F0590F491E02D09945C
:04283000F894FFCF4A
:102834002000000040000000604661696C6564206F
:10284400746F20636F6D6D756E6963617465207755
:10285400697468204C534D394453312E00446F75CC
:10286400626C652D636865636B20776972696E6756
:102874002E0044656661756C742073657474696EAA
:10288400677320696E207468697320736B65746361
:10289400682077696C6C20776F726B20666F72208A
:1028A400616E206F7574206F662074686520626F96
:1028B40078204C534D3944533120427265616B6F1B
:1028C40075742C20627574206D6179206E65656461
:1028D40020746F206265206D6F6469666965642089
:1028E40069662074686520626F617264206A756D20
:1028F40070657273206172652E00473A20002C20A7
:1029040000413A20004D3A200050697463682C203D
:10291400526F6C6C3A200048656164696E673A20B6
:102924000000000000D708A7087B0883089708A6C2
:102934000800000000270DA80ED00CFC0CE00C1CB5
:0E2944000D6E616E00696E66006F76660000B3
:00000001FF
