:100000000C9453000C947B000C947B000C947B00AC
:100010000C947B000C947B000C947B000C947B0074
:100020000C947B000C947B000C947B000C947B0064
:100030000C947B000C947B000C947B000C947B0054
:100040000C9431040C949F000C94E0010C94230256
:100050000C947B000C947B000C947B000C947B0034
:100060000C947B000C947B0001020408102040805B
:1000700001020408102001020408102004040404F2
:100080000404040402020202020203030303030342
:1000900000000000250028002B00000000002400C4
:1000A00027002A00E30211241FBECFEFD8E0DEBFF5
:1000B000CDBF11E0A0E0B1E0E0ECF9E002C00590B6
:1000C0000D92A633B107D9F722E0A6E3B1E001C053
:1000D0001D92AE31B207E1F710E0C3E5D0E004C0F5
:1000E0002197FE010E94D804C235D107C9F70E94AA
:1000F00039010C94DE040C94000040E855E260E005
:1001000070E08BE691E00E945E0261E08CE00E946C
:10011000FD008CB580648CBD8CB580688CBD1EBC28
:100120001092380110923701109236018CB5806818
:100130008CBD61E071E08BE691E00C9478031F9236
:100140000F920FB60F9211242F938F939F93EF93DB
:10015000FF9381E0809336019EB5209138012233D0
:10016000A8F4E091380121E02E0F20933801F0E04F
:10017000E75CFE4F90839091000121E0290F2093CE
:1001800000019EBD8093370110923801FF91EF91DD
:100190009F918F912F910F900FBE0F901F901895E8
:1001A00080913701882341F11092370163E171E0BA
:1001B0008BE691E00E945B0360913901062E000CF2
:1001C000770B40E150E08BE691E00E942A0460E268
:1001D00071E08BE691E00E945B0362E171E08BE6E7
:1001E00091E00E94780382E3E9E3F1E0DF011D92F0
:1001F0008A95E9F7109238010895CF93DF9390E044
:10020000FC01E859FF4F2491FC01E458FF4F849111
:10021000882361F190E0880F991FFC01E656FF4F9B
:10022000C591D491FC01E057FF4FA591B4916111A4
:1002300009C09FB7F8948881209582238883EC9128
:100240002E230BC0623061F49FB7F8943881822F5F
:10025000809583238883EC912E2B2C939FBF06C01F
:100260008FB7F894E8812E2B28838FBFDF91CF9131
:1002700008950E947B040E947D00CAE1D2E00E94A2
:10028000D0002097E1F30E941A02F9CFFC012485E7
:100290003585F901E05CFF4F8081918132962081A4
:1002A0003181821B930B8F7399270895DC011C9673
:1002B000ED91FC911D97DF01A05CBF4F2D913C910A
:1002C000119712968D919C9111972817390739F043
:1002D0008D919C91E80FF91F808190E008958FEF38
:1002E0009FEF0895FC01A485B585FD01E05CFF4FFB
:1002F000208131813296808191812817390779F0E8
:1003000080819181A80FB91F8C91208131812F5F4D
:100310003F4F2F7333273183208390E008958FEF71
:100320009FEF0895FC0181A1882329F0A489B58954
:100330008C9186FFFBCF11A208950F931F93CF934B
:10034000DF93FC01A685B7858D01005C1F4FE80196
:100350008881998101968F739927AD014E5B5F4F1C
:10036000EA012881398182179307D1F3E8012881B6
:100370003981A20FB31F6C93A685B785A05CBF4FD0
:1003800011969C938E93A689B7892C9181E090E079
:10039000078C02C0880F991F0A94E2F7822B8C9376
:1003A00081E081A30488F589E02D808180648083C9
:1003B00081E090E0DF91CF911F910F910895089512
:1003C0001F920F920FB60F9211242F934F935F93AA
:1003D0008F939F93EF93FF938091C00082FD1CC089
:1003E0002091C600809111029091120201968F73A4
:1003F000992740911302509114028417950771F0C8
:10040000E0911102F0911202EF52FE4F208390937F
:1004100012028093110202C08091C600FF91EF91F9
:100420009F918F915F914F912F910F900FBE0F90E1
:100430001F9018958BE691E00E944601892B11F0E0
:100440000C94DF0108951F920F920FB60F921124A2
:100450002F933F938F939F93EF93FF932091CD0121
:100460003091CE018091CF019091D00128173907AA
:1004700031F48091C1008F7D8093C10014C0E09160
:10048000CF01F091D001E357FE4F20818091CF0141
:100490009091D00101968F7399279093D00180930A
:1004A000CF012093C600FF91EF919F918F913F91D3
:1004B0002F910F900FBE0F901F901895CF92DF9243
:1004C000EF92FF920F931F93CF93DF93EC016A019A
:1004D0007B01EC89FD8981E090E008A002C0880FD3
:1004E000991F0A94E2F7808360E874E88EE190E057
:1004F000A70196010E94B60489019A0101501109D1
:100500002109310936952795179507959801011509
:10051000104108F042C0E889F9893083EA89FB89F3
:10052000208319A2EE89FF89408181E090E09C013F
:100530000C8C02C0220F331F0A94E2F7242B208375
:10054000EE89FF8940819C010D8C02C0220F331F70
:100550000A94E2F7242B2083EE89FF8940819C01D5
:100560000E8C02C0220F331F0A94E2F7242B208343
:10057000EE89FF8920810F8C02C0880F991F0A9491
:10058000E2F7809582238083DF91CF911F910F91B5
:10059000FF90EF90DF90CF900895EC89FD89108255
:1005A00060E472E48FE090E0A70196010E94B60437
:1005B000DA01C9010197A109B109B695A7959795E7
:1005C00087959C01A8CFEBE6F1E01382128288EEBA
:1005D00093E0A0E0B0E084839583A683B78389E2AB
:1005E00091E09183808381ED91E0958784878DE808
:1005F00091E09787868785EC90E0918B808B84ECE7
:1006000090E0938B828B80EC90E0958B848B81ECD7
:1006100090E0978B868B82EC90E0918F808F86ECB8
:1006200090E0938F828F84E0848F83E0858F87E0D2
:10063000868F85E0878F81E080A30895CF92DF9237
:10064000EF92FF920F931F93CF93DF936C01EB0117
:100650007B01E40EF51E00E010E0CE15DF0561F031
:100660006991D601ED91FC910190F081E02DC601D8
:100670000995080F191FF1CFC801DF91CF911F9184
:100680000F91FF90EF90DF90CF9008956115710565
:1006900079F0FB0101900020E9F73197AF01461B8B
:1006A000570BDC01ED91FC910280F381E02D099460
:1006B00080E090E008950C944603DC01ED91FC91FC
:1006C0000190F081E02D09940F931F93CF93DF9356
:1006D000EC016DE00E945D038C016AE0CE010E9496
:1006E0005D03800F911FDF91CF911F910F910895AE
:1006F0000F931F93CF93DF93EC010E9446038C016D
:10070000CE010E946403800F911FDF91CF911F9152
:100710000F9108958F929F92AF92BF92CF92DF92E6
:10072000EF92FF920F931F93CF93DF93CDB7DEB776
:10073000A1970FB6F894DEBF0FBECDBF6C01142F8A
:10074000E52FCB01022F19A2223008F40AE07E0126
:1007500021E2E20EF11C802E912CA12CB12C612FF4
:100760007E2FA50194010E94B604029F1019112446
:1007700081E0E81AF1081A3014F4105D01C0195C28
:10078000F7011083122FE32FCA01232B242B252BD3
:1007900031F7B701C6010E944603A1960FB6F8943F
:1007A000DEBF0FBECDBFDF91CF911F910F91FF90A4
:1007B000EF90DF90CF90BF90AF909F908F90089573
:1007C000CF92DF92EF92FF920F931F93CF93DF931D
:1007D000EC016A017B012115310579F4E881F98189
:1007E0000190F081E02D642FDF91CF911F910F9147
:1007F000FF90EF90DF90CF9009942A303105E9F413
:1008000077FF1AC06DE20E945D038C0144275527D3
:10081000BA014C195D096E097F092AE0CE010E94D8
:100820008A03800F911FDF91CF911F910F91FF904D
:10083000EF90DF90CF9008952AE0B701A601CE0196
:10084000DF91CF911F910F91FF90EF90DF90CF90AC
:100850000C948A039A01AB01770F660B770B0C940B
:10086000E0031F920F920FB60F9211242F933F9324
:100870008F939F93AF93BF9380911602909117022D
:10088000A0911802B09119023091150226E0230FB1
:100890002D3720F40296A11DB11D05C029E8230FB4
:1008A0000396A11DB11D209315028093160290930B
:1008B0001702A0931802B093190280911A02909126
:1008C0001B02A0911C02B0911D020196A11DB11D39
:1008D00080931A0290931B02A0931C02B0931D02F6
:1008E000BF91AF919F918F913F912F910F900FBE2C
:1008F0000F901F901895789484B5826084BD84B55C
:10090000816084BD85B5826085BD85B5816085BD0A
:10091000EEE6F0E0808181608083E1E8F0E0108223
:10092000808182608083808181608083E0E8F0E064
:10093000808181608083E1EBF0E08081846080834E
:10094000E0EBF0E0808181608083EAE7F0E0808185
:1009500084608083808182608083808181608083E5
:100960008081806880831092C1000895A1E21A2ED0
:10097000AA1BBB1BFD010DC0AA1FBB1FEE1FFF1F43
:10098000A217B307E407F50720F0A21BB30BE40B93
:10099000F50B661F771F881F991F1A9469F76095DA
:1009A0007095809590959B01AC01BD01CF01089594
:1009B000EE0FFF1F0590F491E02D0994F894FFCFFE
:1009C000AA536C61766520696E697469616C697A95
:1009D00065640052656365697665643A2030780025
:1009E0002C20307800000000009D011E034601729B
:0609F00001560192010016
:00000001FF
